:020000020000FC
:1000000025C05BE066E171E2402F289814D0412FB3
:10001000289A299810D0422F299A2A980CD02A9AE7
:100020007A9591F76A9579F75A9561F7089580E185
:100030008A95F1F70895F0E0EAE7E40F08F4F39504
:10004000349138B9F4DF30E038B908951127222708
:100050000FEF07B937E034B935B93FEF38B9039539
:100060000A3049F4002713951A3029F411272395F3
:100070002A3009F42227C5DFF2CF3F065B4F666DB9
:040080007D077F6F0A
:00000001FF
